:100000000C9446000C9465000C9465000C946500FB
:100010000C9465000C9465000C9465000C946500CC
:100020000C9465000C9465000C9465000C946500BC
:100030000C9465000C9465000C9465000C946500AC
:100040000C9465000C9465000C9465000C9465009C
:100050000C9465000C9465000C9465000C9465008C
:100060000C9465000C9465000C9465000C9465007C
:100070000C9465000C9465000C9465000C9465006C
:100080000C9465000C9465000C94650011241FBE4F
:10009000CFEFD0E1DEBFCDBF11E0A0E0B1E0E0E204
:1000A000F3E000E00BBF02C007900D92AE31B10744
:1000B000D9F711E0AEE1B1E001C01D92A032B10765
:1000C000E1F70E94AC000C948E010C940000EF92BA
:1000D000FF921F93CF93DF937B01EA01C698806262
:1000E0000E94810110E006C0EE0DFF1D80810E947C
:1000F00081011F5FE12FF0E0EC17FD07A8F3C69A1E
:10010000DF91CF911F91FF90EF900895CF92DF92F2
:10011000EF92FF921F93CF93DF936B017A01C69802
:100120000E9481010E94850110E006C00E948A01A0
:10013000CC0DDD1D88831F5FC12FD0E0CE15DF05FC
:10014000A8F3C69A0E947C01DF91CF911F91FF9086
:10015000EF90DF90CF900895CF92DF92EF92FF92D1
:100160000F931F93CF93DF930E947C0188E58093C8
:100170001F0180E06FE171E041E050E00E94670004
:100180008FE380931F0181E06FE171E041E050E077
:100190000E94670082E080931F0185E06FE171E0BB
:1001A00041E050E00E94670082E280931F0186E0F8
:1001B0006FE171E041E050E00E9467008AE060E09A
:1001C00071E041E050E00E94670080E160E071E092
:1001D00041E050E00E94670084E080931F018DE1C0
:1001E0006FE171E041E050E00E946700C6980E9414
:1001F00085010E948A0180931F01C69A0E947C019A
:1002000087E06FE171E041E050E00E94670020E28A
:10021000C22E90EAE92E9FE0F92E88E2D82E08EC53
:1002200010E081E760E070E041E050E00E9467008C
:10023000C0921F0187E06FE171E041E050E00E9451
:100240006700C69880EA0E948101C1E0D1E08991EF
:100250000E94810181E0C132D807C9F7C69A80E0C7
:100260006FE171E041E050E00E94860080911F0143
:10027000826080931F0180E06FE171E041E050E017
:100280000E946700C7010197F1F7C4988D2D8A95E8
:10029000F1F7C498C8010197F1F788E99AE3F801EA
:1002A0003197F1F70197D9F70E948501C6980E940E
:1002B0008A0180931F01C69AF8013197F1F785FFF3
:1002C000F5CF0E947C010E948501C6980E948A0198
:1002D00080931F01C69A0E947C0187E06FE171E064
:1002E00041E050E00E94670080E197E2F801319719
:1002F000F1F70197D9F795CF86E087BB81E58DB9F6
:1003000008958FB9779BFECF089588E087BB80E47E
:100310008DB90895779BFECF8FB10895F894FFCFE4
:100320000149742069732061206669727374206DBD
:0E033000657373616765206F6E204E52460044
:00000001FF
