:100000000C9446000C9465000C9465000C946500FB
:100010000C9465000C9465000C9465000C946500CC
:100020000C9465000C9465000C9465000C946500BC
:100030000C9465000C9465000C9465000C946500AC
:100040000C9465000C9465000C9465000C9465009C
:100050000C9465000C9465000C9465000C9465008C
:100060000C9465000C9465000C9465000C9465007C
:100070000C9465000C9465000C9465000C9465006C
:100080000C9465000C9465000C94650011241FBE4F
:10009000CFEFD0E1DEBFCDBF11E0A0E0B1E0E2E004
:1000A000F3E000E00BBF02C007900D92AE32B10743
:1000B000D9F721E0AEE2B1E001C01D92A033B20752
:1000C000E1F70E94AD000C947F010C940000EF92C8
:1000D000FF920F931F93CF937B018A01C698806292
:1000E0000E947201C0E08C2F90E08017910740F4CD
:1000F000F701E80FF91F80810E947201CF5FF3CFF3
:10010000C69ACF911F910F91FF90EF900895CF92D3
:10011000DF92EF92FF921F93CF93DF936B017A01EF
:10012000C6980E9472010E94760110E0812F90E033
:100130008E159F0540F4E601C80FD91F0E947B0170
:1001400088831F5FF3CFC69ADF91CF911F91FF90F5
:10015000EF90DF90CF900C946D010E946D0188E5C7
:1001600080932F0141E050E06FE271E080E00E9457
:10017000670010922F0141E050E06FE271E081E0F2
:100180000E94670080E180932F0141E050E06FE220
:1001900071E085E00E94670082E280932F0141E0D8
:1001A00050E06FE271E086E00E94670045E050E0B9
:1001B00069E271E080E10E9467000E947601C698C2
:1001C0000E947B0180932F01C69A0E946D0141E03D
:1001D00050E06FE271E087E00E946700D0E280E0CB
:1001E00091E0C0E2C80F41E050E060E070E081E7DC
:1001F0000E946700D0932F0141E050E06FE271E070
:1002000087E00E946700C69880EA0E94720100E0C1
:1002100011E0F80181918F010E947201C013F9CFA2
:10022000C69A41E050E06FE271E080E00E948700F2
:1002300080912F01826080932F0141E050E06FE2B6
:1002400071E080E00E9467008FE99FE00197F1F77D
:1002500000C00000C49898E29A95F1F7C498E7ECC2
:10026000F0E03197F1F700C00000FFEF2EE984E2E3
:10027000F15020408040E1F700C000000E9476016C
:10028000C6980E947B0180932F01C69AE7ECF0E0AC
:100290003197F1F700C0000080912F0185FFF0CF6A
:1002A0000E946D010E947601C6980E947B01809396
:1002B0002F01C69A0E946D0141E050E06FE271E0AB
:1002C00087E00E946700FFEF29E688E1F1502040B7
:1002D0008040E1F700C0000086CF86E087BB81E563
:1002E0008DB908958FB9779BFECF089588E087BBBD
:1002F00080E48DB90895779BFECF8FB10895F8946F
:02030000FFCF2D
:1003020049742069732061206669727374206D6577
:100312007373616765206F6E204E52466465646533
:0E032200646564656465646500D1D2D1D2D192
:00000001FF
